{
  "address": "0xD3B79811fFb55708A4fe848D0b131030a347887C",
  "abi": [
    {
      "inputs": [
        {
          "internalType": "address",
          "name": "_pyth",
          "type": "address"
        },
        {
          "internalType": "bytes32",
          "name": "_priceId",
          "type": "bytes32"
        }
      ],
      "stateMutability": "nonpayable",
      "type": "constructor"
    },
    {
      "inputs": [],
      "name": "decimals",
      "outputs": [
        {
          "internalType": "uint8",
          "name": "",
          "type": "uint8"
        }
      ],
      "stateMutability": "view",
      "type": "function"
    },
    {
      "inputs": [],
      "name": "description",
      "outputs": [
        {
          "internalType": "string",
          "name": "",
          "type": "string"
        }
      ],
      "stateMutability": "pure",
      "type": "function"
    },
    {
      "inputs": [
        {
          "internalType": "uint256",
          "name": "",
          "type": "uint256"
        }
      ],
      "name": "getAnswer",
      "outputs": [
        {
          "internalType": "int256",
          "name": "",
          "type": "int256"
        }
      ],
      "stateMutability": "view",
      "type": "function"
    },
    {
      "inputs": [
        {
          "internalType": "uint80",
          "name": "_roundId",
          "type": "uint80"
        }
      ],
      "name": "getRoundData",
      "outputs": [
        {
          "internalType": "uint80",
          "name": "roundId",
          "type": "uint80"
        },
        {
          "internalType": "int256",
          "name": "answer",
          "type": "int256"
        },
        {
          "internalType": "uint256",
          "name": "startedAt",
          "type": "uint256"
        },
        {
          "internalType": "uint256",
          "name": "updatedAt",
          "type": "uint256"
        },
        {
          "internalType": "uint80",
          "name": "answeredInRound",
          "type": "uint80"
        }
      ],
      "stateMutability": "view",
      "type": "function"
    },
    {
      "inputs": [
        {
          "internalType": "uint256",
          "name": "",
          "type": "uint256"
        }
      ],
      "name": "getTimestamp",
      "outputs": [
        {
          "internalType": "uint256",
          "name": "",
          "type": "uint256"
        }
      ],
      "stateMutability": "view",
      "type": "function"
    },
    {
      "inputs": [],
      "name": "latestAnswer",
      "outputs": [
        {
          "internalType": "int256",
          "name": "",
          "type": "int256"
        }
      ],
      "stateMutability": "view",
      "type": "function"
    },
    {
      "inputs": [],
      "name": "latestRound",
      "outputs": [
        {
          "internalType": "uint256",
          "name": "",
          "type": "uint256"
        }
      ],
      "stateMutability": "view",
      "type": "function"
    },
    {
      "inputs": [],
      "name": "latestRoundData",
      "outputs": [
        {
          "internalType": "uint80",
          "name": "roundId",
          "type": "uint80"
        },
        {
          "internalType": "int256",
          "name": "answer",
          "type": "int256"
        },
        {
          "internalType": "uint256",
          "name": "startedAt",
          "type": "uint256"
        },
        {
          "internalType": "uint256",
          "name": "updatedAt",
          "type": "uint256"
        },
        {
          "internalType": "uint80",
          "name": "answeredInRound",
          "type": "uint80"
        }
      ],
      "stateMutability": "view",
      "type": "function"
    },
    {
      "inputs": [],
      "name": "latestTimestamp",
      "outputs": [
        {
          "internalType": "uint256",
          "name": "",
          "type": "uint256"
        }
      ],
      "stateMutability": "view",
      "type": "function"
    },
    {
      "inputs": [],
      "name": "priceId",
      "outputs": [
        {
          "internalType": "bytes32",
          "name": "",
          "type": "bytes32"
        }
      ],
      "stateMutability": "view",
      "type": "function"
    },
    {
      "inputs": [],
      "name": "pyth",
      "outputs": [
        {
          "internalType": "contract IPyth",
          "name": "",
          "type": "address"
        }
      ],
      "stateMutability": "view",
      "type": "function"
    },
    {
      "inputs": [
        {
          "internalType": "bytes[]",
          "name": "priceUpdateData",
          "type": "bytes[]"
        }
      ],
      "name": "updateFeeds",
      "outputs": [],
      "stateMutability": "payable",
      "type": "function"
    },
    {
      "inputs": [],
      "name": "version",
      "outputs": [
        {
          "internalType": "uint256",
          "name": "",
          "type": "uint256"
        }
      ],
      "stateMutability": "pure",
      "type": "function"
    }
  ],
  "transactionHash": "0xf1f000a0445c3bff218ac25127db56415f4e8d77a445b3d7c9d709c34ac0fea0",
  "args": [
    "0x2880aB155794e7179c9eE2e38200202908C17B43",
    "0xeaa020c61cc479712813461ce153894a96a6c00b21ed0cfc2798d1f9a9e9c94a"
  ],
  "numDeployments": 3,
  "solcInputHash": "e87040be10039b72a57d7c8e61bcce5b",
  "bytecode": "0x60803461007c57601f610ccd38819003918201601f19168301916001600160401b0383118484101761008157808492604094855283398101031261007c5780516001600160a01b038116919082900361007c5760200151600055600180546001600160a01b031916919091179055604051610c3590816100988239f35b600080fd5b634e487b7160e01b600052604160045260246000fdfe6080604081815260048036101561001557600080fd5b600092833560e01c908163311893341461088d57508063313ce5671461078857806350d25bcd1461074d57806354fd4d5014610713578063668a0f02146105dd5780637284e416146105e25780638205bf6a146105dd5780639a6fc8f5146104c8578063b5ab58dc1461048c578063b633620c14610449578063bc36c0a914610216578063f98d06f0146101bf5763feaf968c146100b257600080fd5b346101bb57827ffffffffffffffffffffffffffffffffffffffffffffffffffffffffffffffffc3601126101bb57608073ffffffffffffffffffffffffffffffffffffffff60015416916024855491855194859384927f96834ad30000000000000000000000000000000000000000000000000000000084528301525afa9283156101b0579261017f575b506060828101519251915169ffffffffffffffffffff841680825260079390930b60208201526040810184905290810192909252608082015260a090f35b0390f35b6101a291925060803d6080116101a9575b61019a818361090b565b81019061097b565b903861013d565b503d610190565b8251903d90823e3d90fd5b8280fd5b50503461021257817ffffffffffffffffffffffffffffffffffffffffffffffffffffffffffffffffc3601126102125760209073ffffffffffffffffffffffffffffffffffffffff600154169051908152f35b5080fd5b5090602090817ffffffffffffffffffffffffffffffffffffffffffffffffffffffffffffffffc3601126104085767ffffffffffffffff9280358481116104455736602382011215610445578581830135868111610212576024830192602436918360051b0101116102125773ffffffffffffffffffffffffffffffffffffffff600154168551937fd47eed450000000000000000000000000000000000000000000000000000000085528785806102d186858b8401610b02565b0381855afa94851561043b57849561040c575b50813b15610408576103239487518096819582947fef9e5e280000000000000000000000000000000000000000000000000000000084528a8401610b02565b03925af180156103fe576103bf575b508480808047335af1503d156103b8573d93841161038a57509083915192610381827fffffffffffffffffffffffffffffffffffffffffffffffffffffffffffffffe0601f840116018561090b565b83523d92013e80f35b6041907f4e487b71000000000000000000000000000000000000000000000000000000006000525260246000fd5b5050505080f35b8481969296116103d25782529338610332565b6024826041887f4e487b7100000000000000000000000000000000000000000000000000000000835252fd5b83513d88823e3d90fd5b8380fd5b9094508781813d8311610434575b610424818361090b565b81010312610408575193386102e4565b503d61041a565b87513d86823e3d90fd5b8580fd5b5050346102125760207ffffffffffffffffffffffffffffffffffffffffffffffffffffffffffffffffc36011261021257602090610485610a7b565b9051908152f35b5050346102125760207ffffffffffffffffffffffffffffffffffffffffffffffffffffffffffffffffc360112610212576020906104856109e8565b508290346102125760207ffffffffffffffffffffffffffffffffffffffffffffffffffffffffffffffffc3601126102125780359069ffffffffffffffffffff821682036101bb57608073ffffffffffffffffffffffffffffffffffffffff60015416916024855491875194859384927f96834ad30000000000000000000000000000000000000000000000000000000084528301525afa9283156105d257926105ad575b508151606092830151935169ffffffffffffffffffff9290921680835260079190910b60208301526040820184905291810192909252608082015260a090f35b61017b9192506105cb9060803d6080116101a95761019a818361090b565b919061056d565b8451903d90823e3d90fd5b6108c5565b50346101bb57827ffffffffffffffffffffffffffffffffffffffffffffffffffffffffffffffffc3601126101bb57815190606082019082821067ffffffffffffffff8311176106e757508252603e81526020907f4120706f7274206f66206120636861696e6c696e6b2061676772656761746f7260208201527f20706f77657265642062792070797468206e6574776f726b206665656473000083820152825193849260208452825192836020860152825b8481106106d157505050828201840152601f017fffffffffffffffffffffffffffffffffffffffffffffffffffffffffffffffe0168101030190f35b8181018301518882018801528795508201610695565b8460416024927f4e487b7100000000000000000000000000000000000000000000000000000000835252fd5b50503461021257817ffffffffffffffffffffffffffffffffffffffffffffffffffffffffffffffffc360112610212576020905160018152f35b50503461021257817ffffffffffffffffffffffffffffffffffffffffffffffffffffffffffffffffc360112610212576020906104856109e8565b50823461088a57807ffffffffffffffffffffffffffffffffffffffffffffffffffffffffffffffffc36011261088a5773ffffffffffffffffffffffffffffffffffffffff600154166080825460248651809481937f96834ad3000000000000000000000000000000000000000000000000000000008352888301525afa908115610880579084918391610861575b500151810b8103918280830b036108355760208360ff865191168152f35b9060116024927f4e487b7100000000000000000000000000000000000000000000000000000000835252fd5b61087a915060803d6080116101a95761019a818361090b565b85610817565b84513d84823e3d90fd5b80fd5b84903461021257817ffffffffffffffffffffffffffffffffffffffffffffffffffffffffffffffffc36011261021257602091548152f35b346109065760007ffffffffffffffffffffffffffffffffffffffffffffffffffffffffffffffffc3601126109065760206108fe610a7b565b604051908152f35b600080fd5b90601f7fffffffffffffffffffffffffffffffffffffffffffffffffffffffffffffffe0910116810190811067ffffffffffffffff82111761094c57604052565b7f4e487b7100000000000000000000000000000000000000000000000000000000600052604160045260246000fd5b90816080910312610906576040519067ffffffffffffffff608083018181118482101761094c5760405281518060070b8103610906578352602082015190811681036109065760208301526040810151908160030b82036109065760609160408401520151606082015290565b73ffffffffffffffffffffffffffffffffffffffff6001541660806000546024604051809481937f96834ad300000000000000000000000000000000000000000000000000000000835260048301525afa908115610a6f57600091610a50575b505160070b90565b610a69915060803d6080116101a95761019a818361090b565b38610a48565b6040513d6000823e3d90fd5b73ffffffffffffffffffffffffffffffffffffffff6001541660806000546024604051809481937f96834ad300000000000000000000000000000000000000000000000000000000835260048301525afa8015610a6f57606091600091610ae3575b50015190565b610afc915060803d6080116101a95761019a818361090b565b38610add565b9160208181850182865252604084019360408360051b82010194846000925b858410610b32575050505050505090565b909192939495967fffffffffffffffffffffffffffffffffffffffffffffffffffffffffffffffc082820301845287357fffffffffffffffffffffffffffffffffffffffffffffffffffffffffffffffe18436030181121561090657830186810191903567ffffffffffffffff81116109065780360383136109065787827fffffffffffffffffffffffffffffffffffffffffffffffffffffffffffffffe0601f848060019886989787985286860137600085828601015201160101990194019401929594939190610b2156fea26469706673582212202cfeb6e9cdd707c0b1576f56934bbed08557e9c7b66b3700486dab84f7785e3f64736f6c63430008180033",
  "devdoc": {
    "kind": "dev",
    "methods": {},
    "title": "A port of the ChainlinkAggregatorV3 interface that supports Pyth price feeds",
    "version": 1
  },
  "userdoc": {
    "kind": "user",
    "methods": {},
    "notice": "This does not store any roundId information on-chain. Please review the code before using this implementation. Users should deploy an instance of this contract to wrap every price feed id that they need to use.",
    "version": 1
  },
  "storageLayout": {
    "storage": [
      {
        "astId": 623,
        "contract": "@pythnetwork/pyth-sdk-solidity/PythAggregatorV3.sol:PythAggregatorV3",
        "label": "priceId",
        "offset": 0,
        "slot": "0",
        "type": "t_bytes32"
      },
      {
        "astId": 626,
        "contract": "@pythnetwork/pyth-sdk-solidity/PythAggregatorV3.sol:PythAggregatorV3",
        "label": "pyth",
        "offset": 0,
        "slot": "1",
        "type": "t_contract(IPyth)599"
      }
    ],
    "types": {
      "t_bytes32": {
        "encoding": "inplace",
        "label": "bytes32",
        "numberOfBytes": "32"
      },
      "t_contract(IPyth)599": {
        "encoding": "inplace",
        "label": "contract IPyth",
        "numberOfBytes": "20"
      }
    }
  }
}